:040000007FEF3DF061
:107AFE0000EE53F00B0EEE6AE806FDE1000126EFF4
:107B0E003EF001500302F3CF05F0F4CF06F0015022
:107B1E000402F350062602500302F350062605C057
:107B2E0001F006C002F01200000E096E000E0A6E81
:107B3E00000E0B6E000E0C6E01A008D0055009262B
:107B4E0006500A2207500B2208500C22D8900536F8
:107B5E00063607360836D890043203320232013226
:107B6E000150021003100410D8A4E6D709C001F08A
:107B7E000AC002F00BC003F00CC004F01200076E36
:107B8E0007C005F00F0E0516053AF00E051607385C
:107B9E000F0B0F0B0510076E07C005F0330E051601
:107BAE00D8900536D89005360740E8423F0B330B88
:107BBE000510076E07C005F0550E0516D890053452
:107BCE00066ED8900730550B0610076E0750016EE3
:107BDE00026A036A046A1200D38CD38AD3889B8C00
:107BEE00C80E486E000E496E000E4A6E000E4B6EA9
:107BFE00000E4F6E010E4E6E4EC001F04FC002F0E1
:107C0E00000E046E180E036E88EC3DF001C044F0B9
:107C1E0002C045F0000E45BEFF0E466E476E000ECA
:107C2E004D6E030E4C6E640E576E640E596E640EDE
:107C3E00586E000E5B6E000E5A6E95901200F3ECAD
:107C4E003DF05950C6EC3DF00150526E5750C6EC07
:107C5E003DF00150516E5850C6EC3DF00150506E43
:107C6E00000E436E000E426E0400F29EF2BEFED770
:107C7E0042C031F043C032F0000E32BEFF0E336E02
:107C8E00346E4EC035F04FC036F0000E36BEFF0ECD
:107C9E00376E386E351E361E371E381E352A000ECC
:107CAE0036223722382248503524396E4950362034
:107CBE003A6E4A5037203B6E4B5038203C6E315056
:107CCE00395C32503A5833503B583C50800A3D6E26
:107CDE003450800A3D58D8B01FD0000E436E000EAF
:107CEE00426E000E5B6E000E5A6E000E4F6E010E4F
:107CFE004E6E4EC001F04FC002F0000E046E180E14
:107D0E00036E88EC3DF001C044F002C045F0000E59
:107D1E0045BEFF0E466E476E42C00DF043C00EF0DC
:107D2E00EAEC3EF05A505B10D8B402D0424A432AD5
:107D3E004C504E1804E14D504F18D8B415D04E4A41
:107D4E004F2A4EC001F04FC002F0000E046E180E06
:107D5E00036E88EC3DF001C044F002C045F0000E09
:107D6E0045BEFF0E466E476E4C504E1808E14D5004
:107D7E004F18D8A404D0000E5B6E010E5A6E000E82
:107D8E003F6E0A0E3E6E000E416E406811D0000E20
:107D9E00416E406803D04006D8A0410641BE05D0D2
:107DAE004150F9E14004D8B0F6D73E06D8A03F06C0
:107DBE003FBE05D03F50EBE13E04D8B0E8D7F28E7F
:107DCE00F2BE52D7FDD70DC001F00EC002F0000E6C
:107DDE00046E180E036E88EC3DF001C013F002C065
:107DEE0014F0000E14BEFF0E156E166E000E306EE1
:107DFE00180E2F6E52502B6E2C6A2D6A2E6A0DC0E5
:107E0E000FF00EC010F0000E10BEFF0E116E126EAF
:107E1E000F1E101E111E121E0F2A000E10221122EE
:107E2E00122248500F24016E49501020026E4A5003
:107E3E001120036E4B501220046E180E056E000EAC
:107E4E00066E000E076E000E086E9BEC3DF001C034
:107E5E0017F002C018F003C019F004C01AF0000E9B
:107E6E00286E280E276E000E2A6E296811D0000E7D
:107E7E002A6E296803D02906D8A02A062ABE05D064
:107E8E002A50F9E12904D8B0F6D72706D8A028063B
:107E9E0028BE05D02850EBE12704D8B0E8D7000E55
:107EAE001B6E000E1C6E000E1D6E000E1E6E11D08F
:107EBE008380839000F000F000F000F000F000F0FE
:107ECE0000F000F000F0010E1B26000E1C221D22F9
:107EDE001E2213501B5C14501C5815501D581E505A
:107EEE00800A0F6E1650800A0F58D8A0E1D7000EE8
:107EFE001F6E000E206E000E216E000E226E42D0FE
:107F0E002F503010D8A406D0000E306E180E2F6EE3
:107F1E0052500DD0100E2F183010D8A402D0515040
:107F2E0006D0080E2F183010D8A405D050502B6E46
:107F3E002C6A2D6A2E6A2BA00CD0838000F000F0E4
:107F4E0000F000F000F000F000F000F000F0839080
:107F5E000BD08380839000F000F000F000F000F072
:107F6E0000F000F000F000F02E342E322D322C32C4
:107F7E002B322F06D8A03006010E1F26000E20220F
:107F8E002122222244501F5C455020584650215831
:107F9E002250800A0F6E4750800A0F58D8A0B0D7D3
:107FAE00000E236E000E246E000E256E000E266E41
:107FBE0011D08380839000F000F000F000F000F00C
:107FCE0000F000F000F000F0010E2326000E242237
:107FDE00252226221750235C185024581950255854
:107FEE002650800A0F6E1A50800A0F58D8B0120011
:027FFE00E0D7CA
:020000040020DA
:08000000FFFFFFFFFFFFFFFF00
:020000040030CA
:0E000000FF081B1EFF8381FF0FC00FE00F40A3
:00000001FF
